S00B0000436C6F2E73726563FB
S11300000C9440000C94AD090C94CB090C945D0045
S11300100C945D000C945D000C945D000C945D00E8
S11300200C945D000C945D000C945D000C945D00D8
S11300300C945D000C945D000C943C090C945D00E0
S11300400C945D000C945D000C94E9090C945D0023
S11300500C945D000F0317032003290332033B03B1
S113006044034D0356035F03680371037A03830358
S11300708C0395039E03A703B003B903C203CB0308
S113008011241FBECFE5D4E0DEBFCDBF12E0A0E651
S1130090B0E0E8E6F4E102C005900D92A434B107A3
S11300A0D9F723E0A4E4B2E001C01D92AB33B20758
S11300B0E1F70E94FB090C94320A0C94000011B879
S11300C081E480B9089594EA96BF06B607FEFDCF91
S11300D083B984E886BF06B607FEFDCF91B1987F49
S11300E081E0983109F080E0089583B984E886BFFF
S11300F006B607FEFDCF91B1987F81E0983209F4EE
S113010080E0089584E886BF06B607FEFDCF83B17C
S11301100895CF93DF93D62FC42F0E9463008D2FB1
S11301200E9475008C2F0E94750084E986BFDF91C0
S1130130CF910895CF93DF93C82FD62F0E946300E9
S11301408D2F0E94750081E08C0F0E9463000E9435
S1130150820094E996BFDF91CF91089540E167E072
S113016080ED0E94890060E080ED0E949A00282FB3
S113017030E02038310528F430937F0220937E024A
S1130180089540E8480F842F90E090937F02809375
S11301907E0260E080ED0E9489000895EF92FF9254
S11301A00F931F93CF93DF93EC017B018A0162E0ED
S11301B080ED0E949A00888361E080ED0E949A009D
S11301C0F701808360E080ED0E949A00F80180834B
S11301D0988196FF03C09F71988302C09F73988390
S11301E0DF91CF911F910F91FF90EF900895482FC9
S11301F061E080ED0E9489000895482F62E080ED5F
S11302000E94890008955D9BFECF8CB9089580916A
S11302106A00813039F1109269002FEF8FEF98E076
S1130220215080409040E1F700C0000080916A00B6
S1130230833049F018F4823051F014C0843079F0DE
S1130240853049F00FC081E0809362020BC081E0E9
S11302508093610207C081E080935F0203C081E064
S11302608093600281E080936A00809369008BB779
S1130270806C8BBF0895CF93DF93EC018881882332
S113028031F021960E94030189918111FBCFDF9106
S1130290CF91089580916800813041F48091670086
S11302A08F3071F481E0809366020895833041F4C5
S11302B080916F00873121F481E080936602089574
S11302C010926602089580916000833009F4AAC0F8
S11302D038F4813009F413C1823009F4DAC0089586
S11302E08530B9F108F468C0863009F03EC1DE9863
S11302F080916800813031F4809167008F3061F41F
S1130300C69A0DC0833041F480916F00873121F487
S113031088B3806688BB03C088B38F7988BB80911B
S11303206800823071F480917602813029F4C69A93
S113033080916800823029F480917502813009F43B
S1130340C59A80915A028BBBC09A85E08093600065
S11303500895C09880916800813039F480916700D5
S11303608F3069F4C59AC6980DC0833041F48091EA
S11303706F00873121F488B3806688BB03C088B3DB
S11303808F7988BB80916800823071F48091740207
S1130390813029F4C69A80916800823029F48091D2
S11303A07302813009F4C59A809159028BBBC19ABA
S11303B084E0809360000895C19880916800813042
S11303C031F4809167008E3061F4C69A0DC0833099
S11303D041F480916F00853121F488B3806688BB35
S11303E003C088B38F7988BB80916800823071F430
S11303F080917202813029F4C69A8091680082301B
S113040029F480917102813009F4C59A80916C00BD
S1130410882321F0809158028BBB949A83E08093C7
S113042060000895949880916800813039F4809137
S113043067008E3069F4C59AC6980DC0833041F4C4
S113044080916F00853121F488B3806688BB03C036
S113045088B38F7988BB80916800823071F4809171
S11304607002813029F4C69A80916800823029F4A0
S113047080916F02813009F4C59A80916C008823C1
S113048021F0809157028BBBDC9A82E0809360005C
S11304900895DC9880916800813031F48091670080
S11304A08D3061F4C69A0DC0833041F480916F00A1
S11304B0863121F488B3806688BB03C088B38F7902
S11304C088BB80916800823071F480916E02813023
S11304D029F4C69A80916800823029F480916D02D3
S11304E0813009F4C59A80916D00882321F08091B0
S11304F056028BBBDD9A81E0809360000895DD98FD
S113050080916800813039F4809167008D3069F4FE
S1130510C59AC6980DC0833041F480916F0086312E
S113052021F488B3806688BB03C088B38F7988BB05
S113053080916800823071F480916C02813029F4DA
S1130540C69A80916800823029F480916B028130D0
S113055009F4C59A80916D00882321F08091550299
S11305608BBBDE9A86E080936000089580916900D9
S11305708823C1F080916E00813019F0823051F0EF
S113058011C0AF9A81E080936B00AE9882E08093B3
S11305906E0008C0AE9A82E080936B00AF9881E051
S11305A080936E0080915E02882331F080916A020C
S11305B08F5F80936A0202C010926A0280915C028B
S11305C0882351F08091680290916902019690937A
S11305D069028093680204C0109269021092680252
S11305E080915D02882331F0809167028F5F809350
S11305F0670208951092670208958091680082301E
S113060009F0D0C0E0914F028E2F90E08631910521
S113061008F0C8C0FC01E65DFF4F0C942C0A81E091
S1130620809376021092750280934F02089581E0C0
S1130630809375021092760282E080934F020895AF
S113064081E0809374021092750283E080934F02DC
S1130650089581E0809373021092740284E0809381
S11306604F02089581E0809372021092730285E034
S113067080934F02089581E0809371021092720278
S113068086E080934F02089581E080937002109277
S1130690710287E080934F02089581E080936F0296
S11306A01092700288E080934F02089581E0809355
S11306B06E0210926F0289E080934F02089581E0E8
S11306C080936D0210926E028AE080934F02089527
S11306D081E080936C0210926D028BE080934F0254
S11306E0089581E080936B0210926C028CE08093F9
S11306F04F02089581E080936C0210926B028DE0AA
S113070080934F02089581E080936D0210926C02F1
S11307108EE080934F02089581E080936E021092E0
S11307206D028FE080934F02089581E080936F0201
S113073010926E0280E180934F02089581E08093CD
S1130740700210926F0281E180934F02089581E05C
S1130750809371021092700282E180934F02089597
S113076081E0809372021092710283E180934F02C0
S1130770089581E0809373021092720284E1809361
S11307804F02089581E0809374021092730285E110
S113079080934F02089581E0809375021092740251
S11307A010924F0208952FEF8FE794E0215080407C
S11307B09040E1F700C0000084E790E00E943B0114
S11307C02FEF8FE794E0215080409040E1F700C084
S11307D0000089E890E00E943B012FEF8FE794E04E
S11307E0215080409040E1F700C000008EE990E085
S11307F00E943B012FEF8FE794E02150804090400E
S1130800E1F700C0000086EB90E00E943B012FEF6F
S11308108FE794E0215080409040E1F700C0000051
S11308208EEC90E00E943B012FEF8FE794E0215083
S113083080409040E1F700C0000083EE90E00E9409
S11308403B018AEF90E00E943B012FEF8FE794E099
S1130850215080409040E1F700C0000082E191E027
S11308600E943B012FEF8FE794E02150804090409D
S1130870E1F700C000008DE291E00E943B012FEF00
S11308808FE794E0215080409040E1F700C00000E1
S113089084E491E00E943B010895E199FECF9FBB5F
S11308A08EBB6DBBE29AE19A0895BC9A28B32F7E61
S11308B038B330614FB7F89461157105A9F0FC01A4
S11308C0680F791F919188E038BB000000C097FF42
S11308D028BB990F00C000C000C028BB00008A9547
S11308E099F7E617F70771F74FBF089599E2899FC3
S11308F0912D112492959F70282F34E6939F2019EF
S113090011249DEC299F212D1124269526952695A9
S113091020935702899F912D11249695969596952B
S1130920990F292F220F220F920F891B80935802AF
S1130930089599E2899F912D112492959F70282FF3
S113094034E6939F201911249DEC299F212D112415
S113095026952695269520935502899F912D11243D
S1130960969596959695990F292F220F220F920FFF
S1130970891B80935602089599E2899F912D112431
S113098092959F70282F34E6939F201911249DEC93
S1130990299F212D112426952695269520935902C9
S11309A0899F912D1124969596959695990F292FA7
S11309B0220F220F920F891B80935A02089580E11F
S11309C08093790210927A0280937802EBEEF2E03F
S11309D029ED32E0DF0111971C9211978C938083EB
S11309E03397E217F307B1F71092EC0262E170E07B
S11309F08AED92E00E9455040895809179020E9444
S1130A00760480916102882339F080917902885FAD
S1130A10809379021092610280916202882339F0F6
S1130A2080917902885080937902109262028091B9
S1130A306002882349F086E180936F00109260027F
S1130A4089E591E00E943B01089580917A020E9419
S1130A50990480916102882339F080917A02885F39
S1130A6080937A021092610280916202882339F0A5
S1130A7080917A02885080937A0210926202809167
S1130A806002882349F087E180936F00109260022E
S1130A908BE691E00E943B010895809178020E94C8
S1130AA0BC0480916102882339F080917802885FC8
S1130AB0809378021092610280916202882339F057
S1130AC0809178028850809378021092620280911B
S1130AD06002882349F085E180936F0010926002E0
S1130AE08EE791E00E943B0108952FEF8FE794E099
S1130AF0215080409040E1F700C0000040917A020C
S1130B003091790220917802EBEEF2E089ED92E0E7
S1130B10DF0111974C9311973C9320833397E81787
S1130B20F907B1F71092EC0262E170E08AED92E00D
S1130B300E9455040E94070180916F00863139F0AC
S1130B40873141F0853141F40E94FD0405C00E94C3
S1130B50250502C00E944D0580915F02882339F16A
S1130B6010925F0210925C0283E991E00E943B01C3
S1130B7089EA91E00E943B0182E0809368006091E1
S1130B80790280917B0290917C020E944D046091D5
S1130B907A0280917200909173000E944D046091DA
S1130BA0780280917000909171000E944D048091B0
S1130BB06802909169028D329A4148F010925C0269
S1130BC082E08093680089EB91E00E943B010895E4
S1130BD0982F92959F7090937D028F708093390324
S1130BE00895CF93DF9380916A00813009F4B7C0F0
S1130BF0109269002FEF8FE794E0215080409040DD
S1130C00E1F700C0000080916A00823021F0843056
S1130C1009F450C08FC0AE982FEF8FE794E02150B5
S1130C2080409040E1F700C0000080B38B6F809556
S1130C3080935B02882309F47DC081E080935E0287
S1130C4080B38B6F809580935B02D3E0C1E02DC0AD
S1130C5080916A02813820F1D0936800C0935C02CD
S1130C608DEC91E00E943B012FEF8FEF9CE221502D
S1130C7080409040E1F700C0000089E591E00E94C7
S1130C803B0110925B0280917A020E949904809148
S1130C9079020E947604809178020E94BC0405C007
S1130CA080B38B6F809580935B0280915B0281118E
S1130CB0CFCF40C0AF982FEF8FE794E02150804012
S1130CC09040E1F700C0000080B38B6F8095809363
S1130CD05B02882379F181E080935E0280B38B6F9D
S1130CE0809580935B02C1E021C080916A028138C3
S1130CF0C0F0C0936800C0935C0282EE91E00E9451
S1130D003B012FEF8FEF9CE2215080409040E1F7B0
S1130D1000C0000010925B0283EF91E00E943B014F
S1130D2005C080B38B6F809580935B0280915B02DA
S1130D308111DBCFAE9AAF9A2FEF8FE794E0215069
S1130D4080409040E1F700C0000010925E0281E014
S1130D5080936A00809369008BB7806C8BBFDF91AE
S1130D60CF910895809165028823A1F14CE452E06B
S1130D706DE472E08EE492E00E94CE0080914C0219
S1130D800E94E8058091390380935A0280917D0284
S1130D908093590280914D020E94E80580913903A5
S1130DA08093580280917D028093570280914E0275
S1130DB00E94E805809139038093560280917D0258
S1130DC080935502109265028BB780628BBF81E0DD
S1130DD0809364020E94F105089599E2899F912D00
S1130DE0112492959F70282F34E6939F2019112483
S1130DF09DEC299F212D1124269526952695209337
S1130E005202899F912D1124969596959695990F46
S1130E10292F220F220F920F891B809353020895CA
S1130E20909152028091530220E1929F800D1124EF
S1130E30809354020895809161028823C1F08091C7
S1130E405102873119F41092510203C08F5F8093CD
S1130E50510210926102809151020E94ED0680912C
S1130E6053028093560280915202809355028091DE
S1130E7062028823C9F080915102811104C087E184
S1130E808093510203C081508093510210926202F8
S1130E90809151020E94ED06809153028093560284
S1130EA080915202809355020895809161028823B3
S1130EB0C1F0809150028B3319F41092500203C098
S1130EC08F5F8093500210926102809150020E94C1
S1130ED0ED068091530280935802809152028093D0
S1130EE05702809162028823C9F0809150028111D7
S1130EF004C08BE38093500203C08150809350025E
S1130F0010926202809150020E94ED068091530279
S1130F1080935802809152028093570208958091E1
S1130F206102882349F08EE0809367001092610289
S1130F3082E092E00E943B0180916202882349F0A2
S1130F408FE0809367001092620283E192E00E9436
S1130F503B0180916002882309F181E080935D0266
S1130F6080E18093670084E292E00E943B0110924A
S1130F70600280915502880F982F990F990F890F5D
S1130F8090915602890F809351022FEF8FE79DE0D5
S1130F90215080409040E1F700C0000080915F0242
S1130FA0882329F082E08093680010925F020895FC
S1130FB080916102882349F08FE08093670010924A
S1130FC0610283E192E00E943B01809162028823E6
S1130FD049F08DE0809367001092620283EF91E004
S1130FE00E943B0180916002882309F181E0809393
S1130FF05D0281E18093670083E392E00E943B01FC
S11310001092600280915702880F982F990F990FC0
S1131010890F90915802890F809350022FEF8FE728
S11310209DE0215080409040E1F700C00000809195
S11310305F02882339F082E08093680010925F0297
S113104010925C02089580916102882349F08DE03A
S1131050809367001092610283EF91E00E943B014C
S113106080916202882349F08EE080936700109299
S1131070620282E092E00E943B0180916002811151
S11310801092600280915F02882339F082E080939D
S1131090680010925F0210925C02089580916702CA
S11310A0853128F010926D001092670203C081E030
S11310B080936D0080915F02882399F08DE0809386
S11310C0670010925D0281E080936D0010925F02D0
S11310D02FEF8FE79DE0215080409040E1F700C062
S11310E0000080916002882341F00E9410078091E3
S11310F054020E94FD00109260020E941B07089592
S113110080916702853128F010926C00109267027A
S113111003C081E080936C0080915F02882399F082
S11311208EE08093670010925D0281E080936C00F2
S113113010925F022FEF8FE79DE021508040904096
S1131140E1F700C0000080916002882341F00E9412
S11311501007809154020E94F700109260020E94CE
S1131160550708952FEF8FE794E021508040904079
S1131170E1F700C000000E940701809167008F30F2
S113118091F028F48D3049F08E3051F01EC0813139
S113119099F060F08231B1F018C00E948F0715C039
S11311A00E94D80712C00E9423080FC081E08093D8
S11311B05D020E944E0809C081E080935D020E9496
S11311C0800803C081E080935D0280916802909161
S11311D0690281349A4128F010925C0282E0809383
S11311E06800089581B5876081BD81B5886181BD3E
S11311F0089590BD89B988E18AB98EE880BD0895C3
S113120087B1876C87B986B18F6E86B908958AB322
S11312108F678ABB8BB380788BBB87B38B6F87BB9D
S113122088B3847088BBC29A84B3806C84BB85B352
S11312308F7385BB81B3826381BB82B38D7C82BB98
S113124082B38C6082BB0895AE9AAF9A08958FB52D
S113125082688FBD8EB589618EBD1DBC1CBC80911A
S113126065009091660097BD86BD1BBC1ABC0895AD
S11312708BB7806E8BBF08951F920F920FB60F929B
S113128011242F933F934F935F936F937F938F9387
S11312909F93AF93BF93EF93FF93A89584B195B1B8
S11312A090934B0280934A02209161003091620036
S11312B02817390718F41BBC1ABC06C080916300B8
S11312C0909164009BBD8ABD809149028F5F8E31ED
S11312D018F48093490204C0109249020E946301E9
S11312E0809148028F5F813B18F48093480204C0C8
S11312F0109248020E94B6028091460290914702E1
S11313000196909347028093460280916402882359
S113131021F0109264020E94FD0280914402909197
S11313204502019690934502809344028C35914185
S113133018F081E080937702FF91EF91BF91AF9114
S11313409F918F917F916F915F914F913F912F91D9
S11313500F900FBE0F901F9018951F920F920FB60B
S11313600F9211248F938BB78F738BBF10926902E6
S11313701092680280916B00823021F484E08093A3
S11313806A0003C082E080936A008F910F900FBEC1
S11313900F901F9018951F920F920FB60F92112461
S11313A08F938BB78F738BBF109269021092680270
S11313B080916B00813021F483E080936A0003C044
S11313C085E080936A008F910F900FBE0F901F905D
S11313D018951F920F920FB60F9211248F938BB70B
S11313E08F7D8BBF81E0809365028F910F900FBE3C
S11313F00F901F9018950E9407090E945F000E9499
S1131400AE000E9427090E9400098FE590E00E9427
S1131410F9080E9424090E9438090E94F2080E94D7
S1131420DF0478940E94D30381E080936302A8953B
S113143080916800823029F0833049F0813049F48A
S113144003C00E94B20605C00E94B20802C00E94F6
S113145075050E944A01EBCFEE0FFF1F0590F49132
S10B1460E02D0994F894FFCF7C
S11314680624036200EB010D0201010101010116CA
S11314780200010070696E5F696E69743A09436F0E
S11314886D706C6974650D0A004932435F496E6971
S1131498743A09436F6D706C6974650D0A0044539E
S11314A8313330375F696E69743A09436F6D706C14
S11314B86974650D0A0074696D6572315F696E69D6
S11314C8743A09436F6D706C6974650D0A00616440
S11314D8635F696E69743A09436F6D706C6974650A
S11314E80D0A0055534152545F496E69743A0943D1
S11314F86F6D706C6974650D0A00427574746F6E53
S11315085F696E69743A09436F6D706C6974650D2F
S11315180A00496E746572727570745F696E6974D5
S11315283A09436F6D706C6974650D0A00575F441E
S11315384F475F696E69743A09436F6D706C6974DB
S1131548650D0A004C45445F696E69743A09436F36
S11315586D706C6974650D0A00534554202D205232
S113156865645F636F6C6F720D0A00534554202DD8
S113157820426C75655F636F6C6F720D0A0053458A
S113158854202D20477265656E5F636F6C6F7572AA
S11315980D0A00457869742066726F6D204C4544C5
S11315A85F53657475700D0A00526567696D65202F
S11315B82D20576F726B0D0A004578697420746F7B
S11315C8204C45445F53657475700D0A00456E746C
S11315D8657220746F204C45445F53657475700DB3
S11315E80A00456E74657220746F205365747570B3
S11315F80D0A0053656C65637420486F7572730D2A
S11316080A0053656C656374204D696E757465735F
S11316180D0A0053656C656374205365636F6E64CB
S1131628730D0A0054756E696E6720486F7572737E
S11316380D0A0054756E696E67204D696E75746580
S1071648730D0A0010
S9030000FC
